{
  "contractName": "Lotto",
  "abi": [
    {
      "anonymous": false,
      "inputs": [
        {
          "indexed": false,
          "internalType": "address",
          "name": "previousAdmin",
          "type": "address"
        },
        {
          "indexed": false,
          "internalType": "address",
          "name": "newAdmin",
          "type": "address"
        }
      ],
      "name": "AdminChanged",
      "type": "event"
    },
    {
      "anonymous": false,
      "inputs": [
        {
          "indexed": true,
          "internalType": "address",
          "name": "beacon",
          "type": "address"
        }
      ],
      "name": "BeaconUpgraded",
      "type": "event"
    },
    {
      "anonymous": false,
      "inputs": [
        {
          "indexed": false,
          "internalType": "address",
          "name": "account",
          "type": "address"
        }
      ],
      "name": "Paused",
      "type": "event"
    },
    {
      "anonymous": false,
      "inputs": [
        {
          "indexed": true,
          "internalType": "bytes32",
          "name": "role",
          "type": "bytes32"
        },
        {
          "indexed": true,
          "internalType": "bytes32",
          "name": "previousAdminRole",
          "type": "bytes32"
        },
        {
          "indexed": true,
          "internalType": "bytes32",
          "name": "newAdminRole",
          "type": "bytes32"
        }
      ],
      "name": "RoleAdminChanged",
      "type": "event"
    },
    {
      "anonymous": false,
      "inputs": [
        {
          "indexed": true,
          "internalType": "bytes32",
          "name": "role",
          "type": "bytes32"
        },
        {
          "indexed": true,
          "internalType": "address",
          "name": "account",
          "type": "address"
        },
        {
          "indexed": true,
          "internalType": "address",
          "name": "sender",
          "type": "address"
        }
      ],
      "name": "RoleGranted",
      "type": "event"
    },
    {
      "anonymous": false,
      "inputs": [
        {
          "indexed": true,
          "internalType": "bytes32",
          "name": "role",
          "type": "bytes32"
        },
        {
          "indexed": true,
          "internalType": "address",
          "name": "account",
          "type": "address"
        },
        {
          "indexed": true,
          "internalType": "address",
          "name": "sender",
          "type": "address"
        }
      ],
      "name": "RoleRevoked",
      "type": "event"
    },
    {
      "anonymous": false,
      "inputs": [
        {
          "indexed": false,
          "internalType": "address",
          "name": "account",
          "type": "address"
        }
      ],
      "name": "Unpaused",
      "type": "event"
    },
    {
      "anonymous": false,
      "inputs": [
        {
          "indexed": true,
          "internalType": "address",
          "name": "implementation",
          "type": "address"
        }
      ],
      "name": "Upgraded",
      "type": "event"
    },
    {
      "inputs": [],
      "name": "CEO",
      "outputs": [
        {
          "internalType": "bytes32",
          "name": "",
          "type": "bytes32"
        }
      ],
      "stateMutability": "view",
      "type": "function",
      "constant": true
    },
    {
      "inputs": [],
      "name": "CFO",
      "outputs": [
        {
          "internalType": "bytes32",
          "name": "",
          "type": "bytes32"
        }
      ],
      "stateMutability": "view",
      "type": "function",
      "constant": true
    },
    {
      "inputs": [],
      "name": "CTO",
      "outputs": [
        {
          "internalType": "bytes32",
          "name": "",
          "type": "bytes32"
        }
      ],
      "stateMutability": "view",
      "type": "function",
      "constant": true
    },
    {
      "inputs": [],
      "name": "DEFAULT_ADMIN_ROLE",
      "outputs": [
        {
          "internalType": "bytes32",
          "name": "",
          "type": "bytes32"
        }
      ],
      "stateMutability": "view",
      "type": "function",
      "constant": true
    },
    {
      "inputs": [
        {
          "internalType": "uint256",
          "name": "",
          "type": "uint256"
        }
      ],
      "name": "Pool1",
      "outputs": [
        {
          "internalType": "address",
          "name": "",
          "type": "address"
        }
      ],
      "stateMutability": "view",
      "type": "function",
      "constant": true
    },
    {
      "inputs": [
        {
          "internalType": "uint256",
          "name": "",
          "type": "uint256"
        }
      ],
      "name": "Pool10",
      "outputs": [
        {
          "internalType": "address",
          "name": "",
          "type": "address"
        }
      ],
      "stateMutability": "view",
      "type": "function",
      "constant": true
    },
    {
      "inputs": [
        {
          "internalType": "uint256",
          "name": "",
          "type": "uint256"
        }
      ],
      "name": "Pool5",
      "outputs": [
        {
          "internalType": "address",
          "name": "",
          "type": "address"
        }
      ],
      "stateMutability": "view",
      "type": "function",
      "constant": true
    },
    {
      "inputs": [
        {
          "internalType": "uint256",
          "name": "",
          "type": "uint256"
        }
      ],
      "name": "PoolAmounts",
      "outputs": [
        {
          "internalType": "uint256",
          "name": "",
          "type": "uint256"
        }
      ],
      "stateMutability": "view",
      "type": "function",
      "constant": true
    },
    {
      "inputs": [
        {
          "internalType": "bytes32",
          "name": "role",
          "type": "bytes32"
        }
      ],
      "name": "getRoleAdmin",
      "outputs": [
        {
          "internalType": "bytes32",
          "name": "",
          "type": "bytes32"
        }
      ],
      "stateMutability": "view",
      "type": "function",
      "constant": true
    },
    {
      "inputs": [
        {
          "internalType": "bytes32",
          "name": "role",
          "type": "bytes32"
        },
        {
          "internalType": "address",
          "name": "account",
          "type": "address"
        }
      ],
      "name": "grantRole",
      "outputs": [],
      "stateMutability": "nonpayable",
      "type": "function"
    },
    {
      "inputs": [
        {
          "internalType": "bytes32",
          "name": "role",
          "type": "bytes32"
        },
        {
          "internalType": "address",
          "name": "account",
          "type": "address"
        }
      ],
      "name": "hasRole",
      "outputs": [
        {
          "internalType": "bool",
          "name": "",
          "type": "bool"
        }
      ],
      "stateMutability": "view",
      "type": "function",
      "constant": true
    },
    {
      "inputs": [],
      "name": "paused",
      "outputs": [
        {
          "internalType": "bool",
          "name": "",
          "type": "bool"
        }
      ],
      "stateMutability": "view",
      "type": "function",
      "constant": true
    },
    {
      "inputs": [],
      "name": "proxiableUUID",
      "outputs": [
        {
          "internalType": "bytes32",
          "name": "",
          "type": "bytes32"
        }
      ],
      "stateMutability": "view",
      "type": "function",
      "constant": true
    },
    {
      "inputs": [
        {
          "internalType": "bytes32",
          "name": "role",
          "type": "bytes32"
        },
        {
          "internalType": "address",
          "name": "account",
          "type": "address"
        }
      ],
      "name": "renounceRole",
      "outputs": [],
      "stateMutability": "nonpayable",
      "type": "function"
    },
    {
      "inputs": [
        {
          "internalType": "bytes32",
          "name": "role",
          "type": "bytes32"
        },
        {
          "internalType": "address",
          "name": "account",
          "type": "address"
        }
      ],
      "name": "revokeRole",
      "outputs": [],
      "stateMutability": "nonpayable",
      "type": "function"
    },
    {
      "inputs": [
        {
          "internalType": "bytes4",
          "name": "interfaceId",
          "type": "bytes4"
        }
      ],
      "name": "supportsInterface",
      "outputs": [
        {
          "internalType": "bool",
          "name": "",
          "type": "bool"
        }
      ],
      "stateMutability": "view",
      "type": "function",
      "constant": true
    },
    {
      "inputs": [
        {
          "internalType": "address",
          "name": "newImplementation",
          "type": "address"
        }
      ],
      "name": "upgradeTo",
      "outputs": [],
      "stateMutability": "nonpayable",
      "type": "function"
    },
    {
      "inputs": [
        {
          "internalType": "address",
          "name": "newImplementation",
          "type": "address"
        },
        {
          "internalType": "bytes",
          "name": "data",
          "type": "bytes"
        }
      ],
      "name": "upgradeToAndCall",
      "outputs": [],
      "stateMutability": "payable",
      "type": "function",
      "payable": true
    },
    {
      "inputs": [
        {
          "internalType": "uint256",
          "name": "",
          "type": "uint256"
        }
      ],
      "name": "winners",
      "outputs": [
        {
          "internalType": "address",
          "name": "",
          "type": "address"
        }
      ],
      "stateMutability": "view",
      "type": "function",
      "constant": true
    },
    {
      "inputs": [],
      "name": "winningNumber",
      "outputs": [
        {
          "internalType": "uint256",
          "name": "",
          "type": "uint256"
        }
      ],
      "stateMutability": "view",
      "type": "function",
      "constant": true
    },
    {
      "inputs": [],
      "name": "initialize",
      "outputs": [],
      "stateMutability": "nonpayable",
      "type": "function"
    },
    {
      "inputs": [],
      "name": "getPrice",
      "outputs": [
        {
          "internalType": "uint256",
          "name": "",
          "type": "uint256"
        }
      ],
      "stateMutability": "view",
      "type": "function",
      "constant": true
    },
    {
      "inputs": [],
      "name": "getDollar",
      "outputs": [
        {
          "internalType": "uint256",
          "name": "",
          "type": "uint256"
        }
      ],
      "stateMutability": "view",
      "type": "function",
      "constant": true
    },
    {
      "inputs": [
        {
          "internalType": "uint256",
          "name": "_pool",
          "type": "uint256"
        }
      ],
      "name": "getPot",
      "outputs": [
        {
          "internalType": "uint256",
          "name": "",
          "type": "uint256"
        }
      ],
      "stateMutability": "view",
      "type": "function",
      "constant": true
    },
    {
      "inputs": [
        {
          "internalType": "uint256",
          "name": "_pool",
          "type": "uint256"
        }
      ],
      "name": "getPotUSD",
      "outputs": [
        {
          "internalType": "uint256",
          "name": "",
          "type": "uint256"
        }
      ],
      "stateMutability": "view",
      "type": "function",
      "constant": true
    },
    {
      "inputs": [],
      "name": "getAnnounceDate",
      "outputs": [
        {
          "internalType": "uint256",
          "name": "",
          "type": "uint256"
        }
      ],
      "stateMutability": "view",
      "type": "function",
      "constant": true
    },
    {
      "inputs": [
        {
          "internalType": "uint256",
          "name": "_pool",
          "type": "uint256"
        }
      ],
      "name": "getPlayerCount",
      "outputs": [
        {
          "internalType": "uint256",
          "name": "",
          "type": "uint256"
        }
      ],
      "stateMutability": "view",
      "type": "function",
      "constant": true
    },
    {
      "inputs": [],
      "name": "getTotalPlayerCount",
      "outputs": [
        {
          "internalType": "uint256",
          "name": "",
          "type": "uint256"
        }
      ],
      "stateMutability": "view",
      "type": "function",
      "constant": true
    },
    {
      "inputs": [
        {
          "internalType": "uint256",
          "name": "_start",
          "type": "uint256"
        },
        {
          "internalType": "uint256",
          "name": "_duration",
          "type": "uint256"
        }
      ],
      "name": "startLottery",
      "outputs": [],
      "stateMutability": "nonpayable",
      "type": "function"
    },
    {
      "inputs": [],
      "name": "resetLottery",
      "outputs": [],
      "stateMutability": "nonpayable",
      "type": "function"
    },
    {
      "inputs": [],
      "name": "BuyOneTicket",
      "outputs": [],
      "stateMutability": "payable",
      "type": "function",
      "payable": true
    },
    {
      "inputs": [],
      "name": "BuyFiveTicket",
      "outputs": [],
      "stateMutability": "payable",
      "type": "function",
      "payable": true
    },
    {
      "inputs": [],
      "name": "BuyTenTicket",
      "outputs": [],
      "stateMutability": "payable",
      "type": "function",
      "payable": true
    },
    {
      "inputs": [],
      "name": "AnnounceLotteryWinner",
      "outputs": [],
      "stateMutability": "nonpayable",
      "type": "function"
    },
    {
      "inputs": [],
      "name": "claim",
      "outputs": [],
      "stateMutability": "nonpayable",
      "type": "function"
    }
  ],
  "bytecode": "0x60a06040523073ffffffffffffffffffffffffffffffffffffffff1660809073ffffffffffffffffffffffffffffffffffffffff1681525034801561004357600080fd5b50608051614a9e61007b60003960008181610c3b01528181610cca015281816113b10152818161144001526114f00152614a9e6000f3fe6080604052600436106102045760003560e01c80635c975abb11610118578063a2fb1175116100a0578063d337616e1161006f578063d337616e146106ff578063d547741f14610716578063e20551ce1461073f578063fc4688ba1461077c578063fd9d3c21146107b957610204565b8063a2fb117514610631578063ab1205e91461066e578063ab6c21ae146106ab578063abe7f66d146106d457610204565b806391d14854116100e757806391d148541461053657806393385f731461057357806398d5fdca146105b0578063a1088571146105db578063a217fddf1461060657610204565b80635c975abb146104d35780638129fc1c146104fe578063879089ce14610515578063919e6def1461051f57610204565b806336568abe1161019b5780634664611e1161016a5780634664611e146104405780634e71d92d1461046b5780634f1ef2861461048257806352d1902d1461049e5780635428c383146104c957610204565b806336568abe146103865780633659cfe6146103af5780633d01bdec146103d857806342b94b211461040357610204565b8063248a9ca3116101d7578063248a9ca3146102b857806328d3ad3f146102f55780632f2ff15d1461033257806330d500bf1461035b57610204565b806301ffc9a7146102095780630a1d7ed2146102465780630b3acf521461027157806312f8d2931461027b575b600080fd5b34801561021557600080fd5b50610230600480360381019061022b91906133e1565b6107e4565b60405161023d9190613429565b60405180910390f35b34801561025257600080fd5b5061025b61085e565b604051610268919061345d565b60405180910390f35b610279610893565b005b34801561028757600080fd5b506102a2600480360381019061029d91906134a4565b610a85565b6040516102af9190613512565b60405180910390f35b3480156102c457600080fd5b506102df60048036038101906102da9190613563565b610ac5565b6040516102ec919061359f565b60405180910390f35b34801561030157600080fd5b5061031c600480360381019061031791906134a4565b610ae5565b604051610329919061345d565b60405180910390f35b34801561033e57600080fd5b50610359600480360381019061035491906135e6565b610b69565b005b34801561036757600080fd5b50610370610b92565b60405161037d919061359f565b60405180910390f35b34801561039257600080fd5b506103ad60048036038101906103a891906135e6565b610bb6565b005b3480156103bb57600080fd5b506103d660048036038101906103d19190613626565b610c39565b005b3480156103e457600080fd5b506103ed610dc2565b6040516103fa919061359f565b60405180910390f35b34801561040f57600080fd5b5061042a600480360381019061042591906134a4565b610de6565b604051610437919061345d565b60405180910390f35b34801561044c57600080fd5b50610455610e02565b604051610462919061345d565b60405180910390f35b34801561047757600080fd5b50610480610e09565b005b61049c60048036038101906104979190613799565b6113af565b005b3480156104aa57600080fd5b506104b36114ec565b6040516104c0919061359f565b60405180910390f35b6104d16115a5565b005b3480156104df57600080fd5b506104e86117a3565b6040516104f59190613429565b60405180910390f35b34801561050a57600080fd5b506105136117ba565b005b61051d611a4f565b005b34801561052b57600080fd5b50610534611c4d565b005b34801561054257600080fd5b5061055d600480360381019061055891906135e6565b612030565b60405161056a9190613429565b60405180910390f35b34801561057f57600080fd5b5061059a600480360381019061059591906134a4565b61209b565b6040516105a7919061345d565b60405180910390f35b3480156105bc57600080fd5b506105c56120bf565b6040516105d2919061345d565b60405180910390f35b3480156105e757600080fd5b506105f061216f565b6040516105fd919061359f565b60405180910390f35b34801561061257600080fd5b5061061b612193565b604051610628919061359f565b60405180910390f35b34801561063d57600080fd5b50610658600480360381019061065391906134a4565b61219a565b6040516106659190613512565b60405180910390f35b34801561067a57600080fd5b50610695600480360381019061069091906134a4565b6121da565b6040516106a2919061345d565b60405180910390f35b3480156106b757600080fd5b506106d260048036038101906106cd91906137f5565b61222b565b005b3480156106e057600080fd5b506106e9612347565b6040516106f6919061345d565b60405180910390f35b34801561070b57600080fd5b5061071461235e565b005b34801561072257600080fd5b5061073d600480360381019061073891906135e6565b6125e1565b005b34801561074b57600080fd5b50610766600480360381019061076191906134a4565b61260a565b6040516107739190613512565b60405180910390f35b34801561078857600080fd5b506107a3600480360381019061079e91906134a4565b61264a565b6040516107b09190613512565b60405180910390f35b3480156107c557600080fd5b506107ce61268a565b6040516107db919061345d565b60405180910390f35b60007f7965db0b000000000000000000000000000000000000000000000000000000007bffffffffffffffffffffffffffffffffffffffffffffffffffffffff1916827bffffffffffffffffffffffffffffffffffffffffffffffffffffffff191614806108575750610856826126ba565b5b9050919050565b6000806108696120bf565b905064e8d4a5100081655af3107a40006108839190613893565b61088d91906138c4565b91505090565b6101385442106108d8576040517f08c379a00000000000000000000000000000000000000000000000000000000081526004016108cf906139a1565b60405180910390fd5b60006108e261085e565b905080341015610927576040517f08c379a000000000000000000000000000000000000000000000000000000000815260040161091e90613a33565b60405180910390fd5b61012f339080600181540180825580915050600190039060005260206000200160009091909190916101000a81548173ffffffffffffffffffffffffffffffffffffffff021916908373ffffffffffffffffffffffffffffffffffffffff16021790555061013b60009054906101000a900473ffffffffffffffffffffffffffffffffffffffff1673ffffffffffffffffffffffffffffffffffffffff1663a1448194336000600a61012f805490506109e091906138c4565b6109ea9190613a53565b6040518363ffffffff1660e01b8152600401610a07929190613aa9565b600060405180830381600087803b158015610a2157600080fd5b505af1158015610a35573d6000803e3d6000fd5b505050505a34610132600060038110610a5157610a50613ad2565b5b0154610a5d9190613a53565b610a679190613b01565b610132600060038110610a7d57610a7c613ad2565b5b018190555050565b61012f8181548110610a9657600080fd5b906000526020600020016000915054906101000a900473ffffffffffffffffffffffffffffffffffffffff1681565b600060656000838152602001908152602001600020600101549050919050565b60006001821415610b0f57610132600060038110610b0657610b05613ad2565b5b01549050610b64565b6005821415610b3757610132600160038110610b2e57610b2d613ad2565b5b01549050610b64565b600a821415610b5f57610132600260038110610b5657610b55613ad2565b5b01549050610b64565b600090505b919050565b610b7282610ac5565b610b8381610b7e612724565b61272c565b610b8d83836127c9565b505050565b7f33fa24d9aab6b79237248a16094d5f78ea83bb51e42c123ce925a264e7d816cc81565b610bbe612724565b73ffffffffffffffffffffffffffffffffffffffff168173ffffffffffffffffffffffffffffffffffffffff1614610c2b576040517f08c379a0000000000000000000000000000000000000000000000000000000008152600401610c2290613ba7565b60405180910390fd5b610c3582826128aa565b5050565b7f000000000000000000000000000000000000000000000000000000000000000073ffffffffffffffffffffffffffffffffffffffff163073ffffffffffffffffffffffffffffffffffffffff161415610cc8576040517f08c379a0000000000000000000000000000000000000000000000000000000008152600401610cbf90613c39565b60405180910390fd5b7f000000000000000000000000000000000000000000000000000000000000000073ffffffffffffffffffffffffffffffffffffffff16610d0761298c565b73ffffffffffffffffffffffffffffffffffffffff1614610d5d576040517f08c379a0000000000000000000000000000000000000000000000000000000008152600401610d5490613ccb565b60405180910390fd5b610d66816129e3565b610dbf81600067ffffffffffffffff811115610d8557610d8461366e565b5b6040519080825280601f01601f191660200182016040528015610db75781602001600182028036833780820191505090505b506000612ab1565b50565b7ff5562c8b4b9dcf5083521725556cccf96ad230969b26cc8a145f067d5ab9ac8381565b6101328160038110610df757600080fd5b016000915090505481565b6101365481565b6000151561013a60009054906101000a900460ff1615151415610e2f57610e2e611c4d565b5b610138544211610e74576040517f08c379a0000000000000000000000000000000000000000000000000000000008152600401610e6b90613d5d565b60405180910390fd5b610139544210610eb9576040517f08c379a0000000000000000000000000000000000000000000000000000000008152600401610eb090613def565b60405180910390fd5b61012e600081548110610ecf57610ece613ad2565b5b9060005260206000200160009054906101000a900473ffffffffffffffffffffffffffffffffffffffff1673ffffffffffffffffffffffffffffffffffffffff163373ffffffffffffffffffffffffffffffffffffffff161480610f9e575061012e600181548110610f4457610f43613ad2565b5b9060005260206000200160009054906101000a900473ffffffffffffffffffffffffffffffffffffffff1673ffffffffffffffffffffffffffffffffffffffff163373ffffffffffffffffffffffffffffffffffffffff16145b80611014575061012e600281548110610fba57610fb9613ad2565b5b9060005260206000200160009054906101000a900473ffffffffffffffffffffffffffffffffffffffff1673ffffffffffffffffffffffffffffffffffffffff163373ffffffffffffffffffffffffffffffffffffffff16145b611053576040517f08c379a000000000000000000000000000000000000000000000000000000000815260040161104a90613e5b565b60405180910390fd5b60003373ffffffffffffffffffffffffffffffffffffffff1661012e60008154811061108257611081613ad2565b5b9060005260206000200160009054906101000a900473ffffffffffffffffffffffffffffffffffffffff1673ffffffffffffffffffffffffffffffffffffffff1614156110d257600090506111ca565b3373ffffffffffffffffffffffffffffffffffffffff1661012e6001815481106110ff576110fe613ad2565b5b9060005260206000200160009054906101000a900473ffffffffffffffffffffffffffffffffffffffff1673ffffffffffffffffffffffffffffffffffffffff16141561114f57600190506111c9565b3373ffffffffffffffffffffffffffffffffffffffff1661012e60028154811061117c5761117b613ad2565b5b9060005260206000200160009054906101000a900473ffffffffffffffffffffffffffffffffffffffff1673ffffffffffffffffffffffffffffffffffffffff1614156111c857600290505b5b5b600061013282600381106111e1576111e0613ad2565b5b015490506000151561013583600381106111fe576111fd613ad2565b5b602091828204019190069054906101000a900460ff16151514611256576040517f08c379a000000000000000000000000000000000000000000000000000000000815260040161124d90613ec7565b60405180910390fd5b6000606460058361126791906138c4565b6112719190613893565b9050600081836112819190613b01565b905061012d60009054906101000a900473ffffffffffffffffffffffffffffffffffffffff1673ffffffffffffffffffffffffffffffffffffffff166108fc839081150290604051600060405180830381858888f193505050501580156112ec573d6000803e3d6000fd5b5061012e848154811061130257611301613ad2565b5b9060005260206000200160009054906101000a900473ffffffffffffffffffffffffffffffffffffffff1673ffffffffffffffffffffffffffffffffffffffff166108fc829081150290604051600060405180830381858888f19350505050158015611372573d6000803e3d6000fd5b506001610135856003811061138a57611389613ad2565b5b602091828204019190066101000a81548160ff02191690831515021790555050505050565b7f000000000000000000000000000000000000000000000000000000000000000073ffffffffffffffffffffffffffffffffffffffff163073ffffffffffffffffffffffffffffffffffffffff16141561143e576040517f08c379a000000000000000000000000000000000000000000000000000000000815260040161143590613c39565b60405180910390fd5b7f000000000000000000000000000000000000000000000000000000000000000073ffffffffffffffffffffffffffffffffffffffff1661147d61298c565b73ffffffffffffffffffffffffffffffffffffffff16146114d3576040517f08c379a00000000000000000000000000000000000000000000000000000000081526004016114ca90613ccb565b60405180910390fd5b6114dc826129e3565b6114e882826001612ab1565b5050565b60007f000000000000000000000000000000000000000000000000000000000000000073ffffffffffffffffffffffffffffffffffffffff163073ffffffffffffffffffffffffffffffffffffffff161461157c576040517f08c379a000000000000000000000000000000000000000000000000000000000815260040161157390613f59565b60405180910390fd5b7f360894a13ba1a3210667c828492db98dca3e2076cc3735a920a3ca505d382bbc60001b905090565b6101385442106115ea576040517f08c379a00000000000000000000000000000000000000000000000000000000081526004016115e1906139a1565b60405180910390fd5b60006115f461085e565b905060058161160391906138c4565b341015611645576040517f08c379a000000000000000000000000000000000000000000000000000000000815260040161163c90613feb565b60405180910390fd5b610130339080600181540180825580915050600190039060005260206000200160009091909190916101000a81548173ffffffffffffffffffffffffffffffffffffffff021916908373ffffffffffffffffffffffffffffffffffffffff16021790555061013b60009054906101000a900473ffffffffffffffffffffffffffffffffffffffff1673ffffffffffffffffffffffffffffffffffffffff1663a1448194336001600a610130805490506116fe91906138c4565b6117089190613a53565b6040518363ffffffff1660e01b8152600401611725929190613aa9565b600060405180830381600087803b15801561173f57600080fd5b505af1158015611753573d6000803e3d6000fd5b505050505a3461013260016003811061176f5761176e613ad2565b5b015461177b9190613a53565b6117859190613b01565b61013260016003811061179b5761179a613ad2565b5b018190555050565b6000609760009054906101000a900460ff16905090565b600060019054906101000a900460ff166117e25760008054906101000a900460ff16156117eb565b6117ea612c1f565b5b61182a576040517f08c379a00000000000000000000000000000000000000000000000000000000081526004016118219061407d565b60405180910390fd5b60008060019054906101000a900460ff16159050801561187a576001600060016101000a81548160ff02191690831515021790555060016000806101000a81548160ff0219169083151502179055505b611882612c30565b61188a612c81565b611892612cda565b73d8806d66e24b702e0a56fb972b75d24cad65682161012d60006101000a81548173ffffffffffffffffffffffffffffffffffffffff021916908373ffffffffffffffffffffffffffffffffffffffff160217905550600073f814c9256dc51ac1f6df4686786c40b534299f97905073d0d5e3db44de05e9f294bb0a3beeaf030de24ada61013a60016101000a81548173ffffffffffffffffffffffffffffffffffffffff021916908373ffffffffffffffffffffffffffffffffffffffff1602179055508061013b60006101000a81548173ffffffffffffffffffffffffffffffffffffffff021916908373ffffffffffffffffffffffffffffffffffffffff1602179055506361e55a406101378190555062069780610137546119b79190613a53565b610138819055506202a300610138546119d09190613a53565b61013981905550600061013a60006101000a81548160ff021916908315150217905550611a006000801b336127c9565b611a2a7fdc0d7a095c4e917ecbeb7deda7c942ff9744013d419e37549215a413915e421d336127c9565b508015611a4c5760008060016101000a81548160ff0219169083151502179055505b50565b610138544210611a94576040517f08c379a0000000000000000000000000000000000000000000000000000000008152600401611a8b906139a1565b60405180910390fd5b6000611a9e61085e565b9050600a81611aad91906138c4565b341015611aef576040517f08c379a0000000000000000000000000000000000000000000000000000000008152600401611ae69061410f565b60405180910390fd5b610131339080600181540180825580915050600190039060005260206000200160009091909190916101000a81548173ffffffffffffffffffffffffffffffffffffffff021916908373ffffffffffffffffffffffffffffffffffffffff16021790555061013b60009054906101000a900473ffffffffffffffffffffffffffffffffffffffff1673ffffffffffffffffffffffffffffffffffffffff1663a1448194336002600a61013180549050611ba891906138c4565b611bb29190613a53565b6040518363ffffffff1660e01b8152600401611bcf929190613aa9565b600060405180830381600087803b158015611be957600080fd5b505af1158015611bfd573d6000803e3d6000fd5b505050505a34610132600260038110611c1957611c18613ad2565b5b0154611c259190613a53565b611c2f9190613b01565b610132600260038110611c4557611c44613ad2565b5b018190555050565b611c777fdc0d7a095c4e917ecbeb7deda7c942ff9744013d419e37549215a413915e421d33612030565b80611ca85750611ca77f33fa24d9aab6b79237248a16094d5f78ea83bb51e42c123ce925a264e7d816cc33612030565b5b80611cd95750611cd87ff5562c8b4b9dcf5083521725556cccf96ad230969b26cc8a145f067d5ab9ac8333612030565b5b611d18576040517f08c379a0000000000000000000000000000000000000000000000000000000008152600401611d0f906141a1565b60405180910390fd5b610138544211611d5d576040517f08c379a0000000000000000000000000000000000000000000000000000000008152600401611d5490614233565b60405180910390fd5b6000151561013a60009054906101000a900460ff16151514611db4576040517f08c379a0000000000000000000000000000000000000000000000000000000008152600401611dab9061429f565b60405180910390fd5b600061012f80549050600143611dca9190613b01565b4060001c611dd891906142bf565b9050600061013080549050600143611df09190613b01565b4060001c611dfe91906142bf565b9050600061013180549050600143611e169190613b01565b4060001c611e2491906142bf565b905061012e61012f8481548110611e3e57611e3d613ad2565b5b9060005260206000200160009054906101000a900473ffffffffffffffffffffffffffffffffffffffff169080600181540180825580915050600190039060005260206000200160009091909190916101000a81548173ffffffffffffffffffffffffffffffffffffffff021916908373ffffffffffffffffffffffffffffffffffffffff16021790555061012e6101308381548110611ee157611ee0613ad2565b5b9060005260206000200160009054906101000a900473ffffffffffffffffffffffffffffffffffffffff169080600181540180825580915050600190039060005260206000200160009091909190916101000a81548173ffffffffffffffffffffffffffffffffffffffff021916908373ffffffffffffffffffffffffffffffffffffffff16021790555061012e6101318281548110611f8457611f83613ad2565b5b9060005260206000200160009054906101000a900473ffffffffffffffffffffffffffffffffffffffff169080600181540180825580915050600190039060005260206000200160009091909190916101000a81548173ffffffffffffffffffffffffffffffffffffffff021916908373ffffffffffffffffffffffffffffffffffffffff160217905550600161013a60006101000a81548160ff021916908315150217905550505050565b60006065600084815260200190815260200160002060000160008373ffffffffffffffffffffffffffffffffffffffff1673ffffffffffffffffffffffffffffffffffffffff16815260200190815260200160002060009054906101000a900460ff16905092915050565b60006120a56120bf565b6120ae83610ae5565b6120b891906138c4565b9050919050565b60008060008060008061013a60019054906101000a900473ffffffffffffffffffffffffffffffffffffffff1673ffffffffffffffffffffffffffffffffffffffff1663feaf968c6040518163ffffffff1660e01b815260040160a060405180830381865afa158015612136573d6000803e3d6000fd5b505050506040513d601f19601f8201168201806040525081019061215a919061437d565b94509450945094509450839550505050505090565b7fdc0d7a095c4e917ecbeb7deda7c942ff9744013d419e37549215a413915e421d81565b6000801b81565b61012e81815481106121ab57600080fd5b906000526020600020016000915054906101000a900473ffffffffffffffffffffffffffffffffffffffff1681565b600060018214156121f35761012f805490509050612226565b600582141561220a57610130805490509050612226565b600a82141561222157610131805490509050612226565b600090505b919050565b6122557fdc0d7a095c4e917ecbeb7deda7c942ff9744013d419e37549215a413915e421d33612030565b8061228657506122857f33fa24d9aab6b79237248a16094d5f78ea83bb51e42c123ce925a264e7d816cc33612030565b5b806122b757506122b67ff5562c8b4b9dcf5083521725556cccf96ad230969b26cc8a145f067d5ab9ac8333612030565b5b6122f6576040517f08c379a00000000000000000000000000000000000000000000000000000000081526004016122ed906141a1565b60405180910390fd5b6122fe61235e565b8161013781905550620151808161231591906138c4565b610137546123239190613a53565b610138819055506202a3006101385461233c9190613a53565b610139819055505050565b60006001610138546123599190613a53565b905090565b6123887fdc0d7a095c4e917ecbeb7deda7c942ff9744013d419e37549215a413915e421d33612030565b806123b957506123b87f33fa24d9aab6b79237248a16094d5f78ea83bb51e42c123ce925a264e7d816cc33612030565b5b806123ea57506123e97ff5562c8b4b9dcf5083521725556cccf96ad230969b26cc8a145f067d5ab9ac8333612030565b5b612429576040517f08c379a0000000000000000000000000000000000000000000000000000000008152600401612420906141a1565b60405180910390fd5b61013954421161246e576040517f08c379a00000000000000000000000000000000000000000000000000000000081526004016124659061446a565b60405180910390fd5b6040518060200160405280600073ffffffffffffffffffffffffffffffffffffffff1673ffffffffffffffffffffffffffffffffffffffff1681525061012f9060016124bb929190613289565b506040518060200160405280600073ffffffffffffffffffffffffffffffffffffffff1673ffffffffffffffffffffffffffffffffffffffff16815250610130906001612509929190613289565b506040518060200160405280600073ffffffffffffffffffffffffffffffffffffffff1673ffffffffffffffffffffffffffffffffffffffff16815250610131906001612557929190613289565b506040518060600160405280600060ff168152602001600060ff168152602001600060ff16815250610132906003612590929190613313565b506040518060200160405280600073ffffffffffffffffffffffffffffffffffffffff1673ffffffffffffffffffffffffffffffffffffffff1681525061012e9060016125de929190613289565b50565b6125ea82610ac5565b6125fb816125f6612724565b61272c565b61260583836128aa565b505050565b610131818154811061261b57600080fd5b906000526020600020016000915054906101000a900473ffffffffffffffffffffffffffffffffffffffff1681565b610130818154811061265b57600080fd5b906000526020600020016000915054906101000a900473ffffffffffffffffffffffffffffffffffffffff1681565b6000610131805490506101308054905061012f805490506126ab9190613a53565b6126b59190613a53565b905090565b60007f01ffc9a7000000000000000000000000000000000000000000000000000000007bffffffffffffffffffffffffffffffffffffffffffffffffffffffff1916827bffffffffffffffffffffffffffffffffffffffffffffffffffffffff1916149050919050565b600033905090565b6127368282612030565b6127c55761275b8173ffffffffffffffffffffffffffffffffffffffff166014612d2b565b6127698360001c6020612d2b565b60405160200161277a92919061459c565b6040516020818303038152906040526040517f08c379a00000000000000000000000000000000000000000000000000000000081526004016127bc919061460f565b60405180910390fd5b5050565b6127d38282612030565b6128a65760016065600084815260200190815260200160002060000160008373ffffffffffffffffffffffffffffffffffffffff1673ffffffffffffffffffffffffffffffffffffffff16815260200190815260200160002060006101000a81548160ff02191690831515021790555061284b612724565b73ffffffffffffffffffffffffffffffffffffffff168173ffffffffffffffffffffffffffffffffffffffff16837f2f8788117e7eff1d82e926ec794901d17c78024a50270940304540a733656f0d60405160405180910390a45b5050565b6128b48282612030565b156129885760006065600084815260200190815260200160002060000160008373ffffffffffffffffffffffffffffffffffffffff1673ffffffffffffffffffffffffffffffffffffffff16815260200190815260200160002060006101000a81548160ff02191690831515021790555061292d612724565b73ffffffffffffffffffffffffffffffffffffffff168173ffffffffffffffffffffffffffffffffffffffff16837ff6391f5c32d9c69d2a47ea670b442974b53935d1edc7fd64eb21e047a839171b60405160405180910390a45b5050565b60006129ba7f360894a13ba1a3210667c828492db98dca3e2076cc3735a920a3ca505d382bbc60001b612f67565b60000160009054906101000a900473ffffffffffffffffffffffffffffffffffffffff16905090565b612a0d7fdc0d7a095c4e917ecbeb7deda7c942ff9744013d419e37549215a413915e421d33612030565b80612a3e5750612a3d7f33fa24d9aab6b79237248a16094d5f78ea83bb51e42c123ce925a264e7d816cc33612030565b5b80612a6f5750612a6e7ff5562c8b4b9dcf5083521725556cccf96ad230969b26cc8a145f067d5ab9ac8333612030565b5b612aae576040517f08c379a0000000000000000000000000000000000000000000000000000000008152600401612aa5906141a1565b60405180910390fd5b50565b612add7f4910fdfa16fed3260ed0e7147f7cc6da11a60208b5b9406d12a635614ffd914360001b612f71565b60000160009054906101000a900460ff1615612b0157612afc83612f7b565b612c1a565b8273ffffffffffffffffffffffffffffffffffffffff166352d1902d6040518163ffffffff1660e01b8152600401602060405180830381865afa925050508015612b6957506040513d601f19601f82011682018060405250810190612b669190614646565b60015b612ba8576040517f08c379a0000000000000000000000000000000000000000000000000000000008152600401612b9f906146e5565b60405180910390fd5b7f360894a13ba1a3210667c828492db98dca3e2076cc3735a920a3ca505d382bbc60001b8114612c0d576040517f08c379a0000000000000000000000000000000000000000000000000000000008152600401612c0490614777565b60405180910390fd5b50612c19838383613034565b5b505050565b6000612c2a30613060565b15905090565b600060019054906101000a900460ff16612c7f576040517f08c379a0000000000000000000000000000000000000000000000000000000008152600401612c7690614809565b60405180910390fd5b565b600060019054906101000a900460ff16612cd0576040517f08c379a0000000000000000000000000000000000000000000000000000000008152600401612cc790614809565b60405180910390fd5b612cd8613083565b565b600060019054906101000a900460ff16612d29576040517f08c379a0000000000000000000000000000000000000000000000000000000008152600401612d2090614809565b60405180910390fd5b565b606060006002836002612d3e91906138c4565b612d489190613a53565b67ffffffffffffffff811115612d6157612d6061366e565b5b6040519080825280601f01601f191660200182016040528015612d935781602001600182028036833780820191505090505b5090507f300000000000000000000000000000000000000000000000000000000000000081600081518110612dcb57612dca613ad2565b5b60200101907effffffffffffffffffffffffffffffffffffffffffffffffffffffffffffff1916908160001a9053507f780000000000000000000000000000000000000000000000000000000000000081600181518110612e2f57612e2e613ad2565b5b60200101907effffffffffffffffffffffffffffffffffffffffffffffffffffffffffffff1916908160001a90535060006001846002612e6f91906138c4565b612e799190613a53565b90505b6001811115612f19577f3031323334353637383961626364656600000000000000000000000000000000600f861660108110612ebb57612eba613ad2565b5b1a60f81b828281518110612ed257612ed1613ad2565b5b60200101907effffffffffffffffffffffffffffffffffffffffffffffffffffffffffffff1916908160001a905350600485901c945080612f1290614829565b9050612e7c565b5060008414612f5d576040517f08c379a0000000000000000000000000000000000000000000000000000000008152600401612f549061489f565b60405180910390fd5b8091505092915050565b6000819050919050565b6000819050919050565b612f8481613060565b612fc3576040517f08c379a0000000000000000000000000000000000000000000000000000000008152600401612fba90614931565b60405180910390fd5b80612ff07f360894a13ba1a3210667c828492db98dca3e2076cc3735a920a3ca505d382bbc60001b612f67565b60000160006101000a81548173ffffffffffffffffffffffffffffffffffffffff021916908373ffffffffffffffffffffffffffffffffffffffff16021790555050565b61303d836130ef565b60008251118061304a5750805b1561305b57613059838361313e565b505b505050565b6000808273ffffffffffffffffffffffffffffffffffffffff163b119050919050565b600060019054906101000a900460ff166130d2576040517f08c379a00000000000000000000000000000000000000000000000000000000081526004016130c990614809565b60405180910390fd5b6000609760006101000a81548160ff021916908315150217905550565b6130f881612f7b565b8073ffffffffffffffffffffffffffffffffffffffff167fbc7cd75a20ee27fd9adebab32041f755214dbc6bffa90cc0225b39da2e5c2d3b60405160405180910390a250565b606061314983613060565b613188576040517f08c379a000000000000000000000000000000000000000000000000000000000815260040161317f906149c3565b60405180910390fd5b6000808473ffffffffffffffffffffffffffffffffffffffff16846040516131b09190614a2a565b600060405180830381855af49150503d80600081146131eb576040519150601f19603f3d011682016040523d82523d6000602084013e6131f0565b606091505b50915091506132188282604051806060016040528060278152602001614a4260279139613222565b9250505092915050565b6060831561323257829050613282565b6000835111156132455782518084602001fd5b816040517f08c379a0000000000000000000000000000000000000000000000000000000008152600401613279919061460f565b60405180910390fd5b9392505050565b828054828255906000526020600020908101928215613302579160200282015b828111156133015782518260006101000a81548173ffffffffffffffffffffffffffffffffffffffff021916908373ffffffffffffffffffffffffffffffffffffffff160217905550916020019190600101906132a9565b5b50905061330f9190613358565b5090565b8260038101928215613347579160200282015b82811115613346578251829060ff16905591602001919060010190613326565b5b5090506133549190613358565b5090565b5b80821115613371576000816000905550600101613359565b5090565b6000604051905090565b600080fd5b600080fd5b60007fffffffff0000000000000000000000000000000000000000000000000000000082169050919050565b6133be81613389565b81146133c957600080fd5b50565b6000813590506133db816133b5565b92915050565b6000602082840312156133f7576133f661337f565b5b6000613405848285016133cc565b91505092915050565b60008115159050919050565b6134238161340e565b82525050565b600060208201905061343e600083018461341a565b92915050565b6000819050919050565b61345781613444565b82525050565b6000602082019050613472600083018461344e565b92915050565b61348181613444565b811461348c57600080fd5b50565b60008135905061349e81613478565b92915050565b6000602082840312156134ba576134b961337f565b5b60006134c88482850161348f565b91505092915050565b600073ffffffffffffffffffffffffffffffffffffffff82169050919050565b60006134fc826134d1565b9050919050565b61350c816134f1565b82525050565b60006020820190506135276000830184613503565b92915050565b6000819050919050565b6135408161352d565b811461354b57600080fd5b50565b60008135905061355d81613537565b92915050565b6000602082840312156135795761357861337f565b5b60006135878482850161354e565b91505092915050565b6135998161352d565b82525050565b60006020820190506135b46000830184613590565b92915050565b6135c3816134f1565b81146135ce57600080fd5b50565b6000813590506135e0816135ba565b92915050565b600080604083850312156135fd576135fc61337f565b5b600061360b8582860161354e565b925050602061361c858286016135d1565b9150509250929050565b60006020828403121561363c5761363b61337f565b5b600061364a848285016135d1565b91505092915050565b600080fd5b600080fd5b6000601f19601f8301169050919050565b7f4e487b7100000000000000000000000000000000000000000000000000000000600052604160045260246000fd5b6136a68261365d565b810181811067ffffffffffffffff821117156136c5576136c461366e565b5b80604052505050565b60006136d8613375565b90506136e4828261369d565b919050565b600067ffffffffffffffff8211156137045761370361366e565b5b61370d8261365d565b9050602081019050919050565b82818337600083830152505050565b600061373c613737846136e9565b6136ce565b90508281526020810184848401111561375857613757613658565b5b61376384828561371a565b509392505050565b600082601f8301126137805761377f613653565b5b8135613790848260208601613729565b91505092915050565b600080604083850312156137b0576137af61337f565b5b60006137be858286016135d1565b925050602083013567ffffffffffffffff8111156137df576137de613384565b5b6137eb8582860161376b565b9150509250929050565b6000806040838503121561380c5761380b61337f565b5b600061381a8582860161348f565b925050602061382b8582860161348f565b9150509250929050565b7f4e487b7100000000000000000000000000000000000000000000000000000000600052601260045260246000fd5b7f4e487b7100000000000000000000000000000000000000000000000000000000600052601160045260246000fd5b600061389e82613444565b91506138a983613444565b9250826138b9576138b8613835565b5b828204905092915050565b60006138cf82613444565b91506138da83613444565b9250817fffffffffffffffffffffffffffffffffffffffffffffffffffffffffffffffff048311821515161561391357613912613864565b5b828202905092915050565b600082825260208201905092915050565b7f4c6f747465727920506572696f6420456e6465643a204e6f204d6f726520627560008201527f79696e6720616c6c6f7765640000000000000000000000000000000000000000602082015250565b600061398b602c8361391e565b91506139968261392f565b604082019050919050565b600060208201905081810360008301526139ba8161397e565b9050919050565b7f427579204c6f7474657279205469636b65743a2050726963652073686f756c6460008201527f2062652067726561746572207468616e20312055534400000000000000000000602082015250565b6000613a1d60368361391e565b9150613a28826139c1565b604082019050919050565b60006020820190508181036000830152613a4c81613a10565b9050919050565b6000613a5e82613444565b9150613a6983613444565b9250827fffffffffffffffffffffffffffffffffffffffffffffffffffffffffffffffff03821115613a9e57613a9d613864565b5b828201905092915050565b6000604082019050613abe6000830185613503565b613acb602083018461344e565b9392505050565b7f4e487b7100000000000000000000000000000000000000000000000000000000600052603260045260246000fd5b6000613b0c82613444565b9150613b1783613444565b925082821015613b2a57613b29613864565b5b828203905092915050565b7f416363657373436f6e74726f6c3a2063616e206f6e6c792072656e6f756e636560008201527f20726f6c657320666f722073656c660000000000000000000000000000000000602082015250565b6000613b91602f8361391e565b9150613b9c82613b35565b604082019050919050565b60006020820190508181036000830152613bc081613b84565b9050919050565b7f46756e6374696f6e206d7573742062652063616c6c6564207468726f7567682060008201527f64656c656761746563616c6c0000000000000000000000000000000000000000602082015250565b6000613c23602c8361391e565b9150613c2e82613bc7565b604082019050919050565b60006020820190508181036000830152613c5281613c16565b9050919050565b7f46756e6374696f6e206d7573742062652063616c6c6564207468726f7567682060008201527f6163746976652070726f78790000000000000000000000000000000000000000602082015250565b6000613cb5602c8361391e565b9150613cc082613c59565b604082019050919050565b60006020820190508181036000830152613ce481613ca8565b9050919050565b7f4c6f747465727920506572696f643a205374696c6c20627579696e672074696360008201527f6b65747300000000000000000000000000000000000000000000000000000000602082015250565b6000613d4760248361391e565b9150613d5282613ceb565b604082019050919050565b60006020820190508181036000830152613d7681613d3a565b9050919050565b7f436c61696d20506572696f643a20496e76616c696420436c61696d205065726960008201527f6f64000000000000000000000000000000000000000000000000000000000000602082015250565b6000613dd960228361391e565b9150613de482613d7d565b604082019050919050565b60006020820190508181036000830152613e0881613dcc565b9050919050565b7f4572726f723a20596f7520617265206e6f74207468652077696e6e6572000000600082015250565b6000613e45601d8361391e565b9150613e5082613e0f565b602082019050919050565b60006020820190508181036000830152613e7481613e38565b9050919050565b7f436c61696d3a205072697a6520616c726561647920436c61696d656400000000600082015250565b6000613eb1601c8361391e565b9150613ebc82613e7b565b602082019050919050565b60006020820190508181036000830152613ee081613ea4565b9050919050565b7f555550535570677261646561626c653a206d757374206e6f742062652063616c60008201527f6c6564207468726f7567682064656c656761746563616c6c0000000000000000602082015250565b6000613f4360388361391e565b9150613f4e82613ee7565b604082019050919050565b60006020820190508181036000830152613f7281613f36565b9050919050565b7f427579204c6f7474657279205469636b65743a2050726963652073686f756c6460008201527f2062652067726561746572207468616e20352055534400000000000000000000602082015250565b6000613fd560368361391e565b9150613fe082613f79565b604082019050919050565b6000602082019050818103600083015261400481613fc8565b9050919050565b7f496e697469616c697a61626c653a20636f6e747261637420697320616c72656160008201527f647920696e697469616c697a6564000000000000000000000000000000000000602082015250565b6000614067602e8361391e565b91506140728261400b565b604082019050919050565b600060208201905081810360008301526140968161405a565b9050919050565b7f427579204c6f7474657279205469636b65743a2050726963652073686f756c6460008201527f2062652067726561746572207468616e20313020555344000000000000000000602082015250565b60006140f960378361391e565b91506141048261409d565b604082019050919050565b60006020820190508181036000830152614128816140ec565b9050919050565b7f416363657373436f6e74726f6c3a204164647265737320646f6573206e6f742060008201527f686176652076616c696420526967687473000000000000000000000000000000602082015250565b600061418b60318361391e565b91506141968261412f565b604082019050919050565b600060208201905081810360008301526141ba8161417e565b9050919050565b7f4c6f747465727920506572696f64204e6f7420456e6465643a204e6f2077696e60008201527f6e65727320796574000000000000000000000000000000000000000000000000602082015250565b600061421d60288361391e565b9150614228826141c1565b604082019050919050565b6000602082019050818103600083015261424c81614210565b9050919050565b7f43616e6e6f7420416e6e6f756e63652077696e6e657220796574000000000000600082015250565b6000614289601a8361391e565b915061429482614253565b602082019050919050565b600060208201905081810360008301526142b88161427c565b9050919050565b60006142ca82613444565b91506142d583613444565b9250826142e5576142e4613835565b5b828206905092915050565b600069ffffffffffffffffffff82169050919050565b61430f816142f0565b811461431a57600080fd5b50565b60008151905061432c81614306565b92915050565b6000819050919050565b61434581614332565b811461435057600080fd5b50565b6000815190506143628161433c565b92915050565b60008151905061437781613478565b92915050565b600080600080600060a086880312156143995761439861337f565b5b60006143a78882890161431d565b95505060206143b888828901614353565b94505060406143c988828901614368565b93505060606143da88828901614368565b92505060806143eb8882890161431d565b9150509295509295909350565b7f43616e6e6f74207265736574204c6f7474657279206265666f7265207072657660008201527f6f69757320436c61696d20706572696f6420656e640000000000000000000000602082015250565b600061445460358361391e565b915061445f826143f8565b604082019050919050565b6000602082019050818103600083015261448381614447565b9050919050565b600081905092915050565b7f416363657373436f6e74726f6c3a206163636f756e7420000000000000000000600082015250565b60006144cb60178361448a565b91506144d682614495565b601782019050919050565b600081519050919050565b60005b8381101561450a5780820151818401526020810190506144ef565b83811115614519576000848401525b50505050565b600061452a826144e1565b614534818561448a565b93506145448185602086016144ec565b80840191505092915050565b7f206973206d697373696e6720726f6c6520000000000000000000000000000000600082015250565b600061458660118361448a565b915061459182614550565b601182019050919050565b60006145a7826144be565b91506145b3828561451f565b91506145be82614579565b91506145ca828461451f565b91508190509392505050565b60006145e1826144e1565b6145eb818561391e565b93506145fb8185602086016144ec565b6146048161365d565b840191505092915050565b6000602082019050818103600083015261462981846145d6565b905092915050565b60008151905061464081613537565b92915050565b60006020828403121561465c5761465b61337f565b5b600061466a84828501614631565b91505092915050565b7f45524331393637557067726164653a206e657720696d706c656d656e7461746960008201527f6f6e206973206e6f742055555053000000000000000000000000000000000000602082015250565b60006146cf602e8361391e565b91506146da82614673565b604082019050919050565b600060208201905081810360008301526146fe816146c2565b9050919050565b7f45524331393637557067726164653a20756e737570706f727465642070726f7860008201527f6961626c65555549440000000000000000000000000000000000000000000000602082015250565b600061476160298361391e565b915061476c82614705565b604082019050919050565b6000602082019050818103600083015261479081614754565b9050919050565b7f496e697469616c697a61626c653a20636f6e7472616374206973206e6f74206960008201527f6e697469616c697a696e67000000000000000000000000000000000000000000602082015250565b60006147f3602b8361391e565b91506147fe82614797565b604082019050919050565b60006020820190508181036000830152614822816147e6565b9050919050565b600061483482613444565b9150600082141561484857614847613864565b5b600182039050919050565b7f537472696e67733a20686578206c656e67746820696e73756666696369656e74600082015250565b600061488960208361391e565b915061489482614853565b602082019050919050565b600060208201905081810360008301526148b88161487c565b9050919050565b7f455243313936373a206e657720696d706c656d656e746174696f6e206973206e60008201527f6f74206120636f6e747261637400000000000000000000000000000000000000602082015250565b600061491b602d8361391e565b9150614926826148bf565b604082019050919050565b6000602082019050818103600083015261494a8161490e565b9050919050565b7f416464726573733a2064656c65676174652063616c6c20746f206e6f6e2d636f60008201527f6e74726163740000000000000000000000000000000000000000000000000000602082015250565b60006149ad60268361391e565b91506149b882614951565b604082019050919050565b600060208201905081810360008301526149dc816149a0565b9050919050565b600081519050919050565b600081905092915050565b6000614a04826149e3565b614a0e81856149ee565b9350614a1e8185602086016144ec565b80840191505092915050565b6000614a3682846149f9565b91508190509291505056fe416464726573733a206c6f772d6c6576656c2064656c65676174652063616c6c206661696c6564a2646970667358221220db33f50c985be07537e2481cfc891f69f505f5ecb6e225789d8efe5f44dbefb764736f6c634300080b0033",
  "immutableReferences": {
    "941": [
      {
        "length": 32,
        "start": 3131
      },
      {
        "length": 32,
        "start": 3274
      },
      {
        "length": 32,
        "start": 5041
      },
      {
        "length": 32,
        "start": 5184
      },
      {
        "length": 32,
        "start": 5360
      }
    ]
  },
  "source": "// SPDX-License-Identifier: MIT\n\n// Cuurent contract address polygon: 0x7FAbEBaa16eB899fba6e04fF2d9F6310df5215Fb\npragma solidity ^0.8;\n\nimport \"@openzeppelin/contracts-upgradeable/access/AccessControlUpgradeable.sol\";\nimport \"@openzeppelin/contracts-upgradeable/security/PausableUpgradeable.sol\";\nimport \"@openzeppelin/contracts-upgradeable/proxy/utils/Initializable.sol\";\nimport \"@openzeppelin/contracts-upgradeable/proxy/utils/UUPSUpgradeable.sol\";\nimport \"@chainlink/contracts/src/v0.8/interfaces/AggregatorV3Interface.sol\";\n// import \"@chainlink/contracts/src/v0.8/VRFConsumerBase.sol\";\n\ncontract Lotto is Initializable, AccessControlUpgradeable, PausableUpgradeable,   UUPSUpgradeable{\n\n    // bytes32 internal _KEY = 0xf86195cf7690c55907b2b611ebb7343a6f649bff128701cc542f0569e2c549da;\n    address internal _safe ;\n    // address internal _VRF = 0x3d2341ADb2D31f1c5530cDC622016af293177AE0;\n    // address internal _LINK = 0xb0897686c545045aFc77CF20eC7A532E3120E0F1;\n\n    address[] public winners;\n    address[] public Pool1;\n    address[] public Pool5;\n    address[] public Pool10;\n    uint[3] public PoolAmounts;\n    bool[3] internal claimed;\n\n    // uint internal _FEE = 0.0001 * 1e18;\n    uint public winningNumber;\n    uint startDay;\n    uint lotteryPeriod;\n    uint claimperiod;\n\n    bool internal _win;\n\n    AggregatorV3Interface internal priceFeed;\n    IERC721 LottoTickets;\n\n    bytes32 public constant CEO = keccak256(\"CEO\");\n    bytes32 public constant CTO = keccak256(\"CTO\");\n    bytes32 public constant CFO = keccak256(\"CFO\");\n    \n    modifier validate() {\n        require(\n            hasRole(CEO, msg.sender) ||\n                hasRole(CFO, msg.sender) ||\n                hasRole(CTO, msg.sender),\n            \"AccessControl: Address does not have valid Rights\"\n        );\n        _;\n    }\n\n    function initialize() initializer public {\n        __AccessControl_init();\n        __Pausable_init();\n        __UUPSUpgradeable_init();\n         _safe = 0xd8806d66E24b702e0A56fb972b75D24CAd656821;\n        address _L = 0xF814C9256Dc51AC1f6df4686786c40b534299f97;\n        priceFeed = AggregatorV3Interface(0xd0D5e3DB44DE05E9F294BB0a3bEEaF030DE24Ada);\n        LottoTickets = IERC721(_L);\n        startDay = 1642420800;\n        lotteryPeriod = startDay + 5 days;\n        claimperiod = lotteryPeriod + 2 days;\n        _win = false;\n        _grantRole(DEFAULT_ADMIN_ROLE, msg.sender);\n        _grantRole(CEO, msg.sender);\n    }\n\n    // function fulfillRandomness(bytes32 requestId, uint256 randomness) internal override {\n    //     winningNumber = randomness;\n    // }\n    \n    function getPrice() public view returns(uint){\n        (\n            uint80 roundID, \n            int price,\n            uint startedAt,\n            uint timeStamp,\n            uint80 answeredInRound\n        ) = priceFeed.latestRoundData();\n        return uint(price);\n    }\n\n    function getDollar() public view returns(uint256){\n        uint price = getPrice();\n        return (uint(1e14) / price) * 1e12; // a dollar in matic\n    }\n\n    function getPot(uint _pool) public view returns(uint256){\n        if(_pool == 1) return PoolAmounts[0];\n        else if(_pool == 5) return PoolAmounts[1];\n        else if(_pool == 10) return PoolAmounts[2];\n        else return 0;\n    }\n\n    function getPotUSD(uint _pool) public view returns(uint256){\n        return (getPot(_pool)) * getPrice();\n    }\n\n    function getAnnounceDate() public view returns(uint256){\n        return lotteryPeriod + 1;\n    }\n\n    function getPlayerCount(uint _pool) public view returns(uint256){\n        if(_pool == 1){\n            return Pool1.length;\n        }else if(_pool == 5){\n            return Pool5.length;\n        }else if(_pool == 10){\n            return Pool10.length;\n        }else return 0;\n    }\n\n    function getTotalPlayerCount() public view returns(uint256){\n        return Pool1.length + Pool5.length + Pool10.length;\n    }\n\n    function startLottery(uint _start, uint _duration) public validate {\n        resetLottery();\n        startDay = _start;\n        lotteryPeriod = startDay + _duration * 1 days;\n        claimperiod = lotteryPeriod + 2 days;\n    }\n\n    function resetLottery() public validate {\n        // startLottery(claimperiod, 5);\n        require(block.timestamp > claimperiod, \"Cannot reset Lottery before prevoius Claim period end\");\n        Pool1 = [address(0)];\n        Pool5 = [address(0)];\n        Pool10 = [address(0)];\n        PoolAmounts = [0,0,0];\n        winners = [address(0)];\n    }\n\n    function BuyOneTicket() public payable{\n        require(block.timestamp < lotteryPeriod, \"Lottery Period Ended: No More buying allowed\");\n        uint onedollar = getDollar();\n        require(msg.value >= onedollar, \"Buy Lottery Ticket: Price should be greater than 1 USD\");\n        Pool1.push(msg.sender); // Pool1 is the 1 USD pool\n        LottoTickets.safeMint(msg.sender, (Pool1.length * 10) + 0);\n        PoolAmounts[0] = PoolAmounts[0] + msg.value - gasleft();\n    }\n\n    function BuyFiveTicket() public payable{\n        require(block.timestamp < lotteryPeriod, \"Lottery Period Ended: No More buying allowed\");\n        uint onedollar = getDollar();\n        require(msg.value >= (onedollar * 5), \"Buy Lottery Ticket: Price should be greater than 5 USD\");\n        Pool5.push(msg.sender); // Pool5 is the 5 USD pool\n        LottoTickets.safeMint(msg.sender, (Pool5.length * 10) + 1);\n        PoolAmounts[1] = PoolAmounts[1] + msg.value - gasleft();\n    }\n\n    function BuyTenTicket() public payable{\n        require(block.timestamp < lotteryPeriod, \"Lottery Period Ended: No More buying allowed\");\n        uint onedollar = getDollar();\n        require(msg.value >= (onedollar * 10), \"Buy Lottery Ticket: Price should be greater than 10 USD\");\n        Pool10.push(msg.sender); // Pool10 is the 10 USD pool\n        LottoTickets.safeMint(msg.sender, (Pool10.length * 10) + 2);\n        PoolAmounts[2] = PoolAmounts[2] + msg.value - gasleft();\n    }\n\n    function AnnounceLotteryWinner() public validate{\n        require(block.timestamp > lotteryPeriod, \"Lottery Period Not Ended: No winners yet\");\n        require(_win == false, \"Cannot Announce winner yet\");\n        // winningNumber = uint(blockhash(block.number - 1)) % Players.length;\n\n        uint winningOne = uint(blockhash(block.number - 1)) % Pool1.length;\n        uint winningFive = uint(blockhash(block.number - 1)) % Pool5.length;\n        uint winningTen = uint(blockhash(block.number - 1)) % Pool10.length;\n        winners.push(Pool1[winningOne]);\n        winners.push(Pool5[winningFive]);\n        winners.push(Pool10[winningTen]);\n        _win = true;\n    }\n\n    function claim() public {\n        if(_win == false){\n            AnnounceLotteryWinner();\n        }\n\n        require(block.timestamp > lotteryPeriod, \"Lottery Period: Still buying tickets\");\n        require(block.timestamp < claimperiod, \"Claim Period: Invalid Claim Period\");\n        // require(msg.sender == winner, \"Error: You are not the winner\");\n        require((msg.sender == winners[0]) || (msg.sender == winners[1]) || (msg.sender == winners[2]), \"Error: You are not the winner\");\n        \n        uint winnerpot;\n        if(winners[0] == msg.sender){winnerpot = 0;} // 1 USD Pot\n        else if(winners[1] == msg.sender){winnerpot = 1;}  // 5 USD Pot\n        else if(winners[2] == msg.sender){winnerpot = 2;}  // 10 USD Pot\n\n        uint poolpot = PoolAmounts[winnerpot];\n        require(claimed[winnerpot] == false, \"Claim: Prize already Claimed\");\n\n        uint cut = poolpot * 5 / 100;\n        uint pot = poolpot - cut;\n\n        payable(_safe).transfer(cut);\n        payable(winners[winnerpot]).transfer(pot);\n\n        claimed[winnerpot] = true;\n        // _win = false;\n    } \n        function _authorizeUpgrade(address newImplementation)\n        internal\n        validate\n        override\n    {}\n}\n\n\ninterface IERC721 {\n    event Transfer(address indexed _from, address indexed _to, uint256 indexed _tokenId);\n    event Approval(address indexed _owner, address indexed _approved, uint256 indexed _tokenId);\n    event ApprovalForAll(address indexed _owner, address indexed _operator, bool _approved);\n    \n    function balanceOf(address _owner) external view returns (uint256);\n    function ownerOf(uint256 _tokenId) external view returns (address);\n    function safeMint(address to, uint256 tokenId) external;\n    function safeBurn(address to, uint256 tokenId) external;\n    function safeTransferFrom(address _from, address _to, uint256 _tokenId) external payable;\n    function safeTransfer(address _to, uint256 _tokenId) external payable;\n    function transferFrom(address _from, address _to, uint256 _tokenId) external payable;\n    function approve(address _approved, uint256 _tokenId) external payable;\n    function setApprovalForAll(address _operator, bool _approved) external;\n    function getApproved(uint256 _tokenId) external view returns (address);\n    function isApprovedForAll(address _owner, address _operator) external view returns (bool);\n}",
  "sourcePath": "/Users/mxxnwolf/Documents/Work/USSP/contracts/Lotto.sol",
  "compiler": {
    "name": "solc",
    "version": "0.8.11+commit.d7f03943.Emscripten.clang"
  },
  "schemaVersion": "3.4.4",
  "updatedAt": "2022-02-18T08:52:12.985Z",
  "networkType": "ethereum",
  "devdoc": {
    "kind": "dev",
    "methods": {
      "getRoleAdmin(bytes32)": {
        "details": "Returns the admin role that controls `role`. See {grantRole} and {revokeRole}. To change a role's admin, use {_setRoleAdmin}."
      },
      "grantRole(bytes32,address)": {
        "details": "Grants `role` to `account`. If `account` had not been already granted `role`, emits a {RoleGranted} event. Requirements: - the caller must have ``role``'s admin role."
      },
      "hasRole(bytes32,address)": {
        "details": "Returns `true` if `account` has been granted `role`."
      },
      "paused()": {
        "details": "Returns true if the contract is paused, and false otherwise."
      },
      "proxiableUUID()": {
        "details": "Implementation of the ERC1822 {proxiableUUID} function. This returns the storage slot used by the implementation. It is used to validate that the this implementation remains valid after an upgrade. IMPORTANT: A proxy pointing at a proxiable contract should not be considered proxiable itself, because this risks bricking a proxy that upgrades to it, by delegating to itself until out of gas. Thus it is critical that this function revert if invoked through a proxy. This is guaranteed by the `notDelegated` modifier."
      },
      "renounceRole(bytes32,address)": {
        "details": "Revokes `role` from the calling account. Roles are often managed via {grantRole} and {revokeRole}: this function's purpose is to provide a mechanism for accounts to lose their privileges if they are compromised (such as when a trusted device is misplaced). If the calling account had been revoked `role`, emits a {RoleRevoked} event. Requirements: - the caller must be `account`."
      },
      "revokeRole(bytes32,address)": {
        "details": "Revokes `role` from `account`. If `account` had been granted `role`, emits a {RoleRevoked} event. Requirements: - the caller must have ``role``'s admin role."
      },
      "supportsInterface(bytes4)": {
        "details": "See {IERC165-supportsInterface}."
      },
      "upgradeTo(address)": {
        "details": "Upgrade the implementation of the proxy to `newImplementation`. Calls {_authorizeUpgrade}. Emits an {Upgraded} event."
      },
      "upgradeToAndCall(address,bytes)": {
        "details": "Upgrade the implementation of the proxy to `newImplementation`, and subsequently execute the function call encoded in `data`. Calls {_authorizeUpgrade}. Emits an {Upgraded} event."
      }
    },
    "version": 1
  },
  "userdoc": {
    "kind": "user",
    "methods": {},
    "version": 1
  }
}